{
  "_format": "hh-sol-artifact-1",
  "contractName": "StandardNFT",
  "sourceName": "contracts/simple-nft-sale.sol",
  "abi": [
    {
      "inputs": [
        {
          "internalType": "string",
          "name": "_name",
          "type": "string"
        },
        {
          "internalType": "string",
          "name": "_symbol",
          "type": "string"
        },
        {
          "internalType": "string",
          "name": "_uri",
          "type": "string"
        },
        {
          "internalType": "uint256",
          "name": "price",
          "type": "uint256"
        },
        {
          "internalType": "uint256",
          "name": "maxSupply",
          "type": "uint256"
        }
      ],
      "stateMutability": "payable",
      "type": "constructor"
    },
    {
      "anonymous": false,
      "inputs": [
        {
          "indexed": true,
          "internalType": "address",
          "name": "owner",
          "type": "address"
        },
        {
          "indexed": true,
          "internalType": "address",
          "name": "approved",
          "type": "address"
        },
        {
          "indexed": true,
          "internalType": "uint256",
          "name": "tokenId",
          "type": "uint256"
        }
      ],
      "name": "Approval",
      "type": "event"
    },
    {
      "anonymous": false,
      "inputs": [
        {
          "indexed": true,
          "internalType": "address",
          "name": "owner",
          "type": "address"
        },
        {
          "indexed": true,
          "internalType": "address",
          "name": "operator",
          "type": "address"
        },
        {
          "indexed": false,
          "internalType": "bool",
          "name": "approved",
          "type": "bool"
        }
      ],
      "name": "ApprovalForAll",
      "type": "event"
    },
    {
      "anonymous": false,
      "inputs": [
        {
          "indexed": true,
          "internalType": "address",
          "name": "previousOwner",
          "type": "address"
        },
        {
          "indexed": true,
          "internalType": "address",
          "name": "newOwner",
          "type": "address"
        }
      ],
      "name": "OwnershipTransferred",
      "type": "event"
    },
    {
      "anonymous": false,
      "inputs": [
        {
          "indexed": true,
          "internalType": "address",
          "name": "from",
          "type": "address"
        },
        {
          "indexed": true,
          "internalType": "address",
          "name": "to",
          "type": "address"
        },
        {
          "indexed": true,
          "internalType": "uint256",
          "name": "tokenId",
          "type": "uint256"
        }
      ],
      "name": "Transfer",
      "type": "event"
    },
    {
      "inputs": [],
      "name": "MAX_SUPPLY",
      "outputs": [
        {
          "internalType": "uint256",
          "name": "",
          "type": "uint256"
        }
      ],
      "stateMutability": "view",
      "type": "function"
    },
    {
      "inputs": [
        {
          "internalType": "address",
          "name": "to",
          "type": "address"
        },
        {
          "internalType": "uint256",
          "name": "tokenId",
          "type": "uint256"
        }
      ],
      "name": "approve",
      "outputs": [],
      "stateMutability": "nonpayable",
      "type": "function"
    },
    {
      "inputs": [
        {
          "internalType": "address",
          "name": "owner",
          "type": "address"
        }
      ],
      "name": "balanceOf",
      "outputs": [
        {
          "internalType": "uint256",
          "name": "",
          "type": "uint256"
        }
      ],
      "stateMutability": "view",
      "type": "function"
    },
    {
      "inputs": [],
      "name": "currentPrice",
      "outputs": [
        {
          "internalType": "uint256",
          "name": "",
          "type": "uint256"
        }
      ],
      "stateMutability": "view",
      "type": "function"
    },
    {
      "inputs": [
        {
          "internalType": "uint256",
          "name": "tokenId",
          "type": "uint256"
        }
      ],
      "name": "getApproved",
      "outputs": [
        {
          "internalType": "address",
          "name": "",
          "type": "address"
        }
      ],
      "stateMutability": "view",
      "type": "function"
    },
    {
      "inputs": [
        {
          "internalType": "address",
          "name": "owner",
          "type": "address"
        },
        {
          "internalType": "address",
          "name": "operator",
          "type": "address"
        }
      ],
      "name": "isApprovedForAll",
      "outputs": [
        {
          "internalType": "bool",
          "name": "",
          "type": "bool"
        }
      ],
      "stateMutability": "view",
      "type": "function"
    },
    {
      "inputs": [
        {
          "internalType": "uint256",
          "name": "amount",
          "type": "uint256"
        }
      ],
      "name": "mint",
      "outputs": [],
      "stateMutability": "payable",
      "type": "function"
    },
    {
      "inputs": [],
      "name": "name",
      "outputs": [
        {
          "internalType": "string",
          "name": "",
          "type": "string"
        }
      ],
      "stateMutability": "view",
      "type": "function"
    },
    {
      "inputs": [],
      "name": "owner",
      "outputs": [
        {
          "internalType": "address",
          "name": "",
          "type": "address"
        }
      ],
      "stateMutability": "view",
      "type": "function"
    },
    {
      "inputs": [
        {
          "internalType": "uint256",
          "name": "tokenId",
          "type": "uint256"
        }
      ],
      "name": "ownerOf",
      "outputs": [
        {
          "internalType": "address",
          "name": "",
          "type": "address"
        }
      ],
      "stateMutability": "view",
      "type": "function"
    },
    {
      "inputs": [],
      "name": "renounceOwnership",
      "outputs": [],
      "stateMutability": "nonpayable",
      "type": "function"
    },
    {
      "inputs": [
        {
          "internalType": "uint256",
          "name": "n",
          "type": "uint256"
        }
      ],
      "name": "reserve",
      "outputs": [],
      "stateMutability": "nonpayable",
      "type": "function"
    },
    {
      "inputs": [
        {
          "internalType": "address",
          "name": "from",
          "type": "address"
        },
        {
          "internalType": "address",
          "name": "to",
          "type": "address"
        },
        {
          "internalType": "uint256",
          "name": "tokenId",
          "type": "uint256"
        }
      ],
      "name": "safeTransferFrom",
      "outputs": [],
      "stateMutability": "nonpayable",
      "type": "function"
    },
    {
      "inputs": [
        {
          "internalType": "address",
          "name": "from",
          "type": "address"
        },
        {
          "internalType": "address",
          "name": "to",
          "type": "address"
        },
        {
          "internalType": "uint256",
          "name": "tokenId",
          "type": "uint256"
        },
        {
          "internalType": "bytes",
          "name": "data",
          "type": "bytes"
        }
      ],
      "name": "safeTransferFrom",
      "outputs": [],
      "stateMutability": "nonpayable",
      "type": "function"
    },
    {
      "inputs": [],
      "name": "saleIsActive",
      "outputs": [
        {
          "internalType": "bool",
          "name": "",
          "type": "bool"
        }
      ],
      "stateMutability": "view",
      "type": "function"
    },
    {
      "inputs": [
        {
          "internalType": "address",
          "name": "operator",
          "type": "address"
        },
        {
          "internalType": "bool",
          "name": "approved",
          "type": "bool"
        }
      ],
      "name": "setApprovalForAll",
      "outputs": [],
      "stateMutability": "nonpayable",
      "type": "function"
    },
    {
      "inputs": [
        {
          "internalType": "string",
          "name": "baseURI_",
          "type": "string"
        }
      ],
      "name": "setBaseURI",
      "outputs": [],
      "stateMutability": "nonpayable",
      "type": "function"
    },
    {
      "inputs": [
        {
          "internalType": "uint256",
          "name": "price",
          "type": "uint256"
        }
      ],
      "name": "setCurrentPrice",
      "outputs": [],
      "stateMutability": "nonpayable",
      "type": "function"
    },
    {
      "inputs": [
        {
          "internalType": "bool",
          "name": "isActive",
          "type": "bool"
        }
      ],
      "name": "setSaleIsActive",
      "outputs": [],
      "stateMutability": "nonpayable",
      "type": "function"
    },
    {
      "inputs": [
        {
          "internalType": "bytes4",
          "name": "interfaceId",
          "type": "bytes4"
        }
      ],
      "name": "supportsInterface",
      "outputs": [
        {
          "internalType": "bool",
          "name": "",
          "type": "bool"
        }
      ],
      "stateMutability": "view",
      "type": "function"
    },
    {
      "inputs": [],
      "name": "symbol",
      "outputs": [
        {
          "internalType": "string",
          "name": "",
          "type": "string"
        }
      ],
      "stateMutability": "view",
      "type": "function"
    },
    {
      "inputs": [
        {
          "internalType": "uint256",
          "name": "index",
          "type": "uint256"
        }
      ],
      "name": "tokenByIndex",
      "outputs": [
        {
          "internalType": "uint256",
          "name": "",
          "type": "uint256"
        }
      ],
      "stateMutability": "view",
      "type": "function"
    },
    {
      "inputs": [
        {
          "internalType": "address",
          "name": "owner",
          "type": "address"
        },
        {
          "internalType": "uint256",
          "name": "index",
          "type": "uint256"
        }
      ],
      "name": "tokenOfOwnerByIndex",
      "outputs": [
        {
          "internalType": "uint256",
          "name": "",
          "type": "uint256"
        }
      ],
      "stateMutability": "view",
      "type": "function"
    },
    {
      "inputs": [
        {
          "internalType": "uint256",
          "name": "tokenId",
          "type": "uint256"
        }
      ],
      "name": "tokenURI",
      "outputs": [
        {
          "internalType": "string",
          "name": "",
          "type": "string"
        }
      ],
      "stateMutability": "view",
      "type": "function"
    },
    {
      "inputs": [],
      "name": "totalSupply",
      "outputs": [
        {
          "internalType": "uint256",
          "name": "",
          "type": "uint256"
        }
      ],
      "stateMutability": "view",
      "type": "function"
    },
    {
      "inputs": [
        {
          "internalType": "address",
          "name": "from",
          "type": "address"
        },
        {
          "internalType": "address",
          "name": "to",
          "type": "address"
        },
        {
          "internalType": "uint256",
          "name": "tokenId",
          "type": "uint256"
        }
      ],
      "name": "transferFrom",
      "outputs": [],
      "stateMutability": "nonpayable",
      "type": "function"
    },
    {
      "inputs": [
        {
          "internalType": "address",
          "name": "newOwner",
          "type": "address"
        }
      ],
      "name": "transferOwnership",
      "outputs": [],
      "stateMutability": "nonpayable",
      "type": "function"
    },
    {
      "inputs": [],
      "name": "withdraw",
      "outputs": [],
      "stateMutability": "nonpayable",
      "type": "function"
    }
  ],
  "bytecode": "0x60a06040819052600c805460ff19166001179055620027533881900390819083398101604081905262000032916200026d565b8451859085906200004b906000906020850190620000fa565b50805162000061906001906020840190620000fa565b5050506200007e62000078620000a460201b60201c565b620000a8565b82516200009390600b906020860190620000fa565b50608052600d55506200034e915050565b3390565b600a80546001600160a01b038381166001600160a01b0319831681179093556040519116919082907f8be0079c531659141344cd1fd0a4f28419497f9722a3daafe3b4186f6b6457e090600090a35050565b828054620001089062000311565b90600052602060002090601f0160209004810192826200012c576000855562000177565b82601f106200014757805160ff191683800117855562000177565b8280016001018555821562000177579182015b82811115620001775782518255916020019190600101906200015a565b506200018592915062000189565b5090565b5b808211156200018557600081556001016200018a565b634e487b7160e01b600052604160045260246000fd5b600082601f830112620001c857600080fd5b81516001600160401b0380821115620001e557620001e5620001a0565b604051601f8301601f19908116603f01168101908282118183101715620002105762000210620001a0565b816040528381526020925086838588010111156200022d57600080fd5b600091505b8382101562000251578582018301518183018401529082019062000232565b83821115620002635760008385830101525b9695505050505050565b600080600080600060a086880312156200028657600080fd5b85516001600160401b03808211156200029e57600080fd5b620002ac89838a01620001b6565b96506020880151915080821115620002c357600080fd5b620002d189838a01620001b6565b95506040880151915080821115620002e857600080fd5b50620002f788828901620001b6565b606088015160809098015196999598509695949350505050565b600181811c908216806200032657607f821691505b602082108114156200034857634e487b7160e01b600052602260045260246000fd5b50919050565b6080516123db620003786000396000818161031e01528181610b1e0152610c5c01526123db6000f3fe6080604052600436106101b75760003560e01c80636352211e116100ec578063a0712d681161008a578063c87b56dd11610064578063c87b56dd146104c6578063e985e9c5146104e6578063eb8d24441461052f578063f2fde38b1461054957600080fd5b8063a0712d6814610473578063a22cb46514610486578063b88d4fde146104a657600080fd5b8063819b25ba116100c6578063819b25ba1461040a5780638da5cb5b1461042a57806395d89b41146104485780639d1b464a1461045d57600080fd5b80636352211e146103b557806370a08231146103d5578063715018a6146103f557600080fd5b806323b872dd116101595780633ccfd60b116101335780633ccfd60b1461034057806342842e0e146103555780634f6ccce71461037557806355f804b31461039557600080fd5b806323b872dd146102cc5780632f745c59146102ec57806332cb6b0c1461030c57600080fd5b8063081812fc11610195578063081812fc14610235578063095ea7b31461026d57806318160ddd1461028d57806318b20071146102ac57600080fd5b806301ffc9a7146101bc57806302c88989146101f157806306fdde0314610213575b600080fd5b3480156101c857600080fd5b506101dc6101d7366004611dd4565b610569565b60405190151581526020015b60405180910390f35b3480156101fd57600080fd5b5061021161020c366004611e06565b61057a565b005b34801561021f57600080fd5b506102286105b3565b6040516101e89190611e97565b34801561024157600080fd5b50610255610250366004611eaa565b610645565b6040516001600160a01b0390911681526020016101e8565b34801561027957600080fd5b50610211610288366004611eda565b61066c565b34801561029957600080fd5b506008545b6040519081526020016101e8565b3480156102b857600080fd5b506102116102c7366004611eaa565b6107a3565b3480156102d857600080fd5b506102116102e7366004611f04565b6107b0565b3480156102f857600080fd5b5061029e610307366004611eda565b610837565b34801561031857600080fd5b5061029e7f000000000000000000000000000000000000000000000000000000000000000081565b34801561034c57600080fd5b506102116108df565b34801561036157600080fd5b50610211610370366004611f04565b610916565b34801561038157600080fd5b5061029e610390366004611eaa565b610931565b3480156103a157600080fd5b506102116103b0366004612003565b6109d5565b3480156103c157600080fd5b506102556103d0366004611eaa565b6109f4565b3480156103e157600080fd5b5061029e6103f036600461204c565b610a59565b34801561040157600080fd5b50610211610af3565b34801561041657600080fd5b50610211610425366004611eaa565b610b07565b34801561043657600080fd5b50600a546001600160a01b0316610255565b34801561045457600080fd5b50610228610bc5565b34801561046957600080fd5b5061029e600d5481565b610211610481366004611eaa565b610bd4565b34801561049257600080fd5b506102116104a1366004612067565b610d5b565b3480156104b257600080fd5b506102116104c136600461209a565b610d66565b3480156104d257600080fd5b506102286104e1366004611eaa565b610df4565b3480156104f257600080fd5b506101dc610501366004612116565b6001600160a01b03918216600090815260056020908152604080832093909416825291909152205460ff1690565b34801561053b57600080fd5b50600c546101dc9060ff1681565b34801561055557600080fd5b5061021161056436600461204c565b610e5b565b600061057482610ee8565b92915050565b610582610f3e565b600c80547fffffffffffffffffffffffffffffffffffffffffffffffffffffffffffffff0016911515919091179055565b6060600080546105c290612140565b80601f01602080910402602001604051908101604052809291908181526020018280546105ee90612140565b801561063b5780601f106106105761010080835404028352916020019161063b565b820191906000526020600020905b81548152906001019060200180831161061e57829003601f168201915b5050505050905090565b600061065082610f98565b506000908152600460205260409020546001600160a01b031690565b6000610677826109f4565b9050806001600160a01b0316836001600160a01b031614156107065760405162461bcd60e51b815260206004820152602160248201527f4552433732313a20617070726f76616c20746f2063757272656e74206f776e6560448201527f720000000000000000000000000000000000000000000000000000000000000060648201526084015b60405180910390fd5b336001600160a01b038216148061072257506107228133610501565b6107945760405162461bcd60e51b815260206004820152603e60248201527f4552433732313a20617070726f76652063616c6c6572206973206e6f7420746f60448201527f6b656e206f776e6572206e6f7220617070726f76656420666f7220616c6c000060648201526084016106fd565b61079e8383610ffc565b505050565b6107ab610f3e565b600d55565b6107ba3382611082565b61082c5760405162461bcd60e51b815260206004820152602e60248201527f4552433732313a2063616c6c6572206973206e6f7420746f6b656e206f776e6560448201527f72206e6f7220617070726f76656400000000000000000000000000000000000060648201526084016106fd565b61079e838383611101565b600061084283610a59565b82106108b65760405162461bcd60e51b815260206004820152602b60248201527f455243373231456e756d657261626c653a206f776e657220696e646578206f7560448201527f74206f6620626f756e647300000000000000000000000000000000000000000060648201526084016106fd565b506001600160a01b03919091166000908152600660209081526040808320938352929052205490565b6108e7610f3e565b60405133904780156108fc02916000818181858888f19350505050158015610913573d6000803e3d6000fd5b50565b61079e83838360405180602001604052806000815250610d66565b600061093c60085490565b82106109b05760405162461bcd60e51b815260206004820152602c60248201527f455243373231456e756d657261626c653a20676c6f62616c20696e646578206f60448201527f7574206f6620626f756e6473000000000000000000000000000000000000000060648201526084016106fd565b600882815481106109c3576109c3612194565b90600052602060002001549050919050565b6109dd610f3e565b80516109f090600b906020840190611d0d565b5050565b6000818152600260205260408120546001600160a01b0316806105745760405162461bcd60e51b815260206004820152601860248201527f4552433732313a20696e76616c696420746f6b656e204944000000000000000060448201526064016106fd565b60006001600160a01b038216610ad75760405162461bcd60e51b815260206004820152602960248201527f4552433732313a2061646472657373207a65726f206973206e6f74206120766160448201527f6c6964206f776e6572000000000000000000000000000000000000000000000060648201526084016106fd565b506001600160a01b031660009081526003602052604090205490565b610afb610f3e565b610b0560006112f1565b565b610b0f610f3e565b6000610b1a60085490565b90507f0000000000000000000000000000000000000000000000000000000000000000610b4783836121f2565b1115610b955760405162461bcd60e51b815260206004820181905260248201527f507572636861736520776f756c6420657863656564206d617820746f6b656e7360448201526064016106fd565b60005b8281101561079e57610bb333610bae83856121f2565b61135b565b80610bbd8161220a565b915050610b98565b6060600180546105c290612140565b6000610bdf60085490565b600c5490915060ff16610c5a5760405162461bcd60e51b815260206004820152602260248201527f53616c65206d7573742062652061637469766520746f206d696e7420746f6b6560448201527f6e7300000000000000000000000000000000000000000000000000000000000060648201526084016106fd565b7f0000000000000000000000000000000000000000000000000000000000000000610c8583836121f2565b1115610cd35760405162461bcd60e51b815260206004820181905260248201527f507572636861736520776f756c6420657863656564206d617820746f6b656e7360448201526064016106fd565b3482600d54610ce29190612243565b1115610d305760405162461bcd60e51b815260206004820152601960248201527f56616c75652073656e74206973206e6f7420636f72726563740000000000000060448201526064016106fd565b60005b8281101561079e57610d4933610bae83856121f2565b80610d538161220a565b915050610d33565b6109f0338383611375565b610d703383611082565b610de25760405162461bcd60e51b815260206004820152602e60248201527f4552433732313a2063616c6c6572206973206e6f7420746f6b656e206f776e6560448201527f72206e6f7220617070726f76656400000000000000000000000000000000000060648201526084016106fd565b610dee84848484611462565b50505050565b6060610dff82610f98565b6000610e096114eb565b90506000815111610e295760405180602001604052806000815250610e54565b80610e33846114fa565b604051602001610e44929190612280565b6040516020818303038152906040525b9392505050565b610e63610f3e565b6001600160a01b038116610edf5760405162461bcd60e51b815260206004820152602660248201527f4f776e61626c653a206e6577206f776e657220697320746865207a65726f206160448201527f646472657373000000000000000000000000000000000000000000000000000060648201526084016106fd565b610913816112f1565b60007fffffffff0000000000000000000000000000000000000000000000000000000082167f780e9d6300000000000000000000000000000000000000000000000000000000148061057457506105748261162c565b600a546001600160a01b03163314610b055760405162461bcd60e51b815260206004820181905260248201527f4f776e61626c653a2063616c6c6572206973206e6f7420746865206f776e657260448201526064016106fd565b6000818152600260205260409020546001600160a01b03166109135760405162461bcd60e51b815260206004820152601860248201527f4552433732313a20696e76616c696420746f6b656e204944000000000000000060448201526064016106fd565b600081815260046020526040902080547fffffffffffffffffffffffff0000000000000000000000000000000000000000166001600160a01b0384169081179091558190611049826109f4565b6001600160a01b03167f8c5be1e5ebec7d5bd14f71427d1e84f3dd0314c0f7b2291e5b200ac8c7c3b92560405160405180910390a45050565b60008061108e836109f4565b9050806001600160a01b0316846001600160a01b031614806110d557506001600160a01b0380821660009081526005602090815260408083209388168352929052205460ff165b806110f95750836001600160a01b03166110ee84610645565b6001600160a01b0316145b949350505050565b826001600160a01b0316611114826109f4565b6001600160a01b0316146111905760405162461bcd60e51b815260206004820152602560248201527f4552433732313a207472616e736665722066726f6d20696e636f72726563742060448201527f6f776e657200000000000000000000000000000000000000000000000000000060648201526084016106fd565b6001600160a01b03821661120b5760405162461bcd60e51b8152602060048201526024808201527f4552433732313a207472616e7366657220746f20746865207a65726f2061646460448201527f726573730000000000000000000000000000000000000000000000000000000060648201526084016106fd565b61121683838361170f565b611221600082610ffc565b6001600160a01b038316600090815260036020526040812080546001929061124a9084906122af565b90915550506001600160a01b03821660009081526003602052604081208054600192906112789084906121f2565b909155505060008181526002602052604080822080547fffffffffffffffffffffffff0000000000000000000000000000000000000000166001600160a01b0386811691821790925591518493918716917fddf252ad1be2c89b69c2b068fc378daa952ba7f163c4a11628f55a4df523b3ef91a4505050565b600a80546001600160a01b038381167fffffffffffffffffffffffff0000000000000000000000000000000000000000831681179093556040519116919082907f8be0079c531659141344cd1fd0a4f28419497f9722a3daafe3b4186f6b6457e090600090a35050565b6109f082826040518060200160405280600081525061171a565b816001600160a01b0316836001600160a01b031614156113d75760405162461bcd60e51b815260206004820152601960248201527f4552433732313a20617070726f766520746f2063616c6c65720000000000000060448201526064016106fd565b6001600160a01b0383811660008181526005602090815260408083209487168084529482529182902080547fffffffffffffffffffffffffffffffffffffffffffffffffffffffffffffff001686151590811790915591519182527f17307eab39ab6107e8899845ad3d59bd9653f200f220920489ca2b5937696c31910160405180910390a3505050565b61146d848484611101565b611479848484846117a3565b610dee5760405162461bcd60e51b815260206004820152603260248201527f4552433732313a207472616e7366657220746f206e6f6e20455243373231526560448201527f63656976657220696d706c656d656e746572000000000000000000000000000060648201526084016106fd565b6060600b80546105c290612140565b60608161153a57505060408051808201909152600181527f3000000000000000000000000000000000000000000000000000000000000000602082015290565b8160005b8115611564578061154e8161220a565b915061155d9050600a836122f5565b915061153e565b60008167ffffffffffffffff81111561157f5761157f611f40565b6040519080825280601f01601f1916602001820160405280156115a9576020820181803683370190505b5090505b84156110f9576115be6001836122af565b91506115cb600a86612309565b6115d69060306121f2565b60f81b8183815181106115eb576115eb612194565b60200101907effffffffffffffffffffffffffffffffffffffffffffffffffffffffffffff1916908160001a905350611625600a866122f5565b94506115ad565b60007fffffffff0000000000000000000000000000000000000000000000000000000082167f80ac58cd0000000000000000000000000000000000000000000000000000000014806116bf57507fffffffff0000000000000000000000000000000000000000000000000000000082167f5b5e139f00000000000000000000000000000000000000000000000000000000145b8061057457507f01ffc9a7000000000000000000000000000000000000000000000000000000007fffffffff00000000000000000000000000000000000000000000000000000000831614610574565b61079e83838361195f565b6117248383611a17565b61173160008484846117a3565b61079e5760405162461bcd60e51b815260206004820152603260248201527f4552433732313a207472616e7366657220746f206e6f6e20455243373231526560448201527f63656976657220696d706c656d656e746572000000000000000000000000000060648201526084016106fd565b60006001600160a01b0384163b15611954576040517f150b7a020000000000000000000000000000000000000000000000000000000081526001600160a01b0385169063150b7a029061180090339089908890889060040161231d565b6020604051808303816000875af1925050508015611859575060408051601f3d9081017fffffffffffffffffffffffffffffffffffffffffffffffffffffffffffffffe016820190925261185691810190612359565b60015b611909573d808015611887576040519150601f19603f3d011682016040523d82523d6000602084013e61188c565b606091505b5080516119015760405162461bcd60e51b815260206004820152603260248201527f4552433732313a207472616e7366657220746f206e6f6e20455243373231526560448201527f63656976657220696d706c656d656e746572000000000000000000000000000060648201526084016106fd565b805181602001fd5b7fffffffff00000000000000000000000000000000000000000000000000000000167f150b7a02000000000000000000000000000000000000000000000000000000001490506110f9565b506001949350505050565b6001600160a01b0383166119ba576119b581600880546000838152600960205260408120829055600182018355919091527ff3f7a9fe364faab93b216da50a3214154f22a0a2b415b23a84c8169e8b636ee30155565b6119dd565b816001600160a01b0316836001600160a01b0316146119dd576119dd8382611b7d565b6001600160a01b0382166119f45761079e81611c1a565b826001600160a01b0316826001600160a01b03161461079e5761079e8282611cc9565b6001600160a01b038216611a6d5760405162461bcd60e51b815260206004820181905260248201527f4552433732313a206d696e7420746f20746865207a65726f206164647265737360448201526064016106fd565b6000818152600260205260409020546001600160a01b031615611ad25760405162461bcd60e51b815260206004820152601c60248201527f4552433732313a20746f6b656e20616c7265616479206d696e7465640000000060448201526064016106fd565b611ade6000838361170f565b6001600160a01b0382166000908152600360205260408120805460019290611b079084906121f2565b909155505060008181526002602052604080822080547fffffffffffffffffffffffff0000000000000000000000000000000000000000166001600160a01b03861690811790915590518392907fddf252ad1be2c89b69c2b068fc378daa952ba7f163c4a11628f55a4df523b3ef908290a45050565b60006001611b8a84610a59565b611b9491906122af565b600083815260076020526040902054909150808214611be7576001600160a01b03841660009081526006602090815260408083208584528252808320548484528184208190558352600790915290208190555b5060009182526007602090815260408084208490556001600160a01b039094168352600681528383209183525290812055565b600854600090611c2c906001906122af565b60008381526009602052604081205460088054939450909284908110611c5457611c54612194565b906000526020600020015490508060088381548110611c7557611c75612194565b6000918252602080832090910192909255828152600990915260408082208490558582528120556008805480611cad57611cad612376565b6001900381819060005260206000200160009055905550505050565b6000611cd483610a59565b6001600160a01b039093166000908152600660209081526040808320868452825280832085905593825260079052919091209190915550565b828054611d1990612140565b90600052602060002090601f016020900481019282611d3b5760008555611d81565b82601f10611d5457805160ff1916838001178555611d81565b82800160010185558215611d81579182015b82811115611d81578251825591602001919060010190611d66565b50611d8d929150611d91565b5090565b5b80821115611d8d5760008155600101611d92565b7fffffffff000000000000000000000000000000000000000000000000000000008116811461091357600080fd5b600060208284031215611de657600080fd5b8135610e5481611da6565b80358015158114611e0157600080fd5b919050565b600060208284031215611e1857600080fd5b610e5482611df1565b60005b83811015611e3c578181015183820152602001611e24565b83811115610dee5750506000910152565b60008151808452611e65816020860160208601611e21565b601f017fffffffffffffffffffffffffffffffffffffffffffffffffffffffffffffffe0169290920160200192915050565b602081526000610e546020830184611e4d565b600060208284031215611ebc57600080fd5b5035919050565b80356001600160a01b0381168114611e0157600080fd5b60008060408385031215611eed57600080fd5b611ef683611ec3565b946020939093013593505050565b600080600060608486031215611f1957600080fd5b611f2284611ec3565b9250611f3060208501611ec3565b9150604084013590509250925092565b7f4e487b7100000000000000000000000000000000000000000000000000000000600052604160045260246000fd5b600067ffffffffffffffff80841115611f8a57611f8a611f40565b604051601f85017fffffffffffffffffffffffffffffffffffffffffffffffffffffffffffffffe0908116603f01168101908282118183101715611fd057611fd0611f40565b81604052809350858152868686011115611fe957600080fd5b858560208301376000602087830101525050509392505050565b60006020828403121561201557600080fd5b813567ffffffffffffffff81111561202c57600080fd5b8201601f8101841361203d57600080fd5b6110f984823560208401611f6f565b60006020828403121561205e57600080fd5b610e5482611ec3565b6000806040838503121561207a57600080fd5b61208383611ec3565b915061209160208401611df1565b90509250929050565b600080600080608085870312156120b057600080fd5b6120b985611ec3565b93506120c760208601611ec3565b925060408501359150606085013567ffffffffffffffff8111156120ea57600080fd5b8501601f810187136120fb57600080fd5b61210a87823560208401611f6f565b91505092959194509250565b6000806040838503121561212957600080fd5b61213283611ec3565b915061209160208401611ec3565b600181811c9082168061215457607f821691505b6020821081141561218e577f4e487b7100000000000000000000000000000000000000000000000000000000600052602260045260246000fd5b50919050565b7f4e487b7100000000000000000000000000000000000000000000000000000000600052603260045260246000fd5b7f4e487b7100000000000000000000000000000000000000000000000000000000600052601160045260246000fd5b60008219821115612205576122056121c3565b500190565b60007fffffffffffffffffffffffffffffffffffffffffffffffffffffffffffffffff82141561223c5761223c6121c3565b5060010190565b6000817fffffffffffffffffffffffffffffffffffffffffffffffffffffffffffffffff048311821515161561227b5761227b6121c3565b500290565b60008351612292818460208801611e21565b8351908301906122a6818360208801611e21565b01949350505050565b6000828210156122c1576122c16121c3565b500390565b7f4e487b7100000000000000000000000000000000000000000000000000000000600052601260045260246000fd5b600082612304576123046122c6565b500490565b600082612318576123186122c6565b500690565b60006001600160a01b0380871683528086166020840152508360408301526080606083015261234f6080830184611e4d565b9695505050505050565b60006020828403121561236b57600080fd5b8151610e5481611da6565b7f4e487b7100000000000000000000000000000000000000000000000000000000600052603160045260246000fdfea26469706673582212200845797bb20ca66ac733eaa55100be7eeb455b3aeb43145240a5eb5bb996add864736f6c634300080c0033",
  "linkReferences": {},
  "deployedLinkReferences": {}
}